:020000040800F2
:1000000048170020DD010008C11D00081F1B000863
:10001000BD1D0008C3020008712400080000000094
:100020000000000000000000000000004501000882
:10003000C702000800000000890100081D1E00081A
:10004000F7010008F7010008F7010008F7010008B0
:10005000F7010008F7010008F7010008F7010008A0
:10006000F7010008C9020008F7010008F7010008BD
:10007000F7010008F7010008F7010008F701000880
:10008000F7010008F7010008F7010008F701000870
:10009000F7010008F7010008F7010008F701000860
:1000A000F7010008F7010008F7010008F701000850
:1000B000111F00085D1F0008F7010008F701000884
:1000C000F7010008F7010008F7010008F701000830
:1000D000F7010008F7010008FD230008F7010008F8
:1000E000F7010008F7010008F7010008F701000810
:1000F000F7010008F7010008F7010008F701000800
:10010000F7010008F7010008F7010008F7010008EF
:10011000F7010008F7010008F70100086D1F00084B
:10012000F7010008F7010008F7010008F7010008CF
:10013000DFF80CD000F088F800480047FD2D0008DB
:1001400048170020224B19680868B0E8F00F80F3C8
:100150000988BFF36F8F4FF0000080F311884EF0D5
:100160000D0E70470000000006480068006880F32C
:10017000088862B661B6BFF34F8FBFF36F8F00DFA1
:1001800000BF00BF08ED00E0EFF30980BFF36F8F01
:100190000F4B1A6820E9F00F106008B54FF05000BF
:1001A00080F31188BFF34F8FBFF36F8F03F0EEFB27
:1001B0004FF0000080F31188BDE808401968086816
:1001C000B0E8F00F80F30988BFF36F8F704700BF6E
:1001D00034010020EFF30580704700000648804797
:1001E00006480047FEE7FEE7FEE7FEE7FEE7FEE71C
:1001F000FEE7FEE7FEE7FEE7B91E00083101000852
:1002000040EA01039B0703D009E008C9121F08C098
:10021000042AFAD203E011F8013B00F8013B521E18
:10022000F9D27047D2B201E000F8012B491EFBD28F
:1002300070470022F6E710B513460A4604461946F1
:10024000FFF7F0FF204610BD064C074D06E0E068C2
:1002500040F0010394E8070098471034AC42F6D30D
:10026000FFF76AFF504300087043000870B58C1810
:1002700010F8015B15F0070301D110F8013B2A11BA
:1002800006D110F8012B03E010F8016B01F8016BA7
:100290005B1EF9D12B0705D40023521E0DD401F8A3
:1002A000013BFAE710F8013BCB1A921C03E013F86C
:1002B000015B01F8015B521EF9D5A142D8D30020A1
:1002C00070BD00BFFEE7704710B5082000F038FA97
:1002D00010BD704713B56A460123002004E00C5896
:1002E00042F82040441CA0B29842F8D31CBD70B51F
:1002F00004460CB9012070BD94F8200010B92046C6
:1003000000F0B0F82068006820F002002168086062
:1003100000F0CAFB05460DE000F0C6FB401B0A28B2
:1003200008D9606A40F400306062052084F820003B
:100330000120E0E72068406800F002000028EBD1CF
:100340002068006840F001002168086000F0ACFB04
:1003500005460DE000F0A8FB401B0A2808D9606A9A
:1003600040F400306062052084F820000120C2E7DC
:100370002068406800F001000028EBD0207E0128B2
:1003800006D12068006840F080002168086005E020
:100390002068006820F0800021680860607E0128E5
:1003A00006D12068006840F040002168086005E040
:1003B0002068006820F0400021680860A07E0128C5
:1003C00006D12068006840F020002168086005E040
:1003D0002068006820F0200021680860E07E012885
:1003E00006D12068006820F010002168086005E050
:1003F0002068006840F0100021680860207F012814
:1004000006D12068006840F008002168086005E017
:100410002068006820F0080021680860607F0128DB
:1004200006D12068006840F004002168086005E0FB
:100430002068006820F0040021680860D4E9020107
:10044000084321690843616908436168491E0843FC
:100450002168C86100206062012084F8200000202B
:1004600049E7000010B586B00446002002900390D2
:10047000049005901F492068884239D100BF1E486A
:10048000C06940F000701C49C8610846C06900F0AE
:100490000070019000BF00BF00BF0846806940F0B7
:1004A000080088610846806900F00800019000BFDC
:1004B00000BF8815029000200390049002A90F4805
:1004C00000F04CF94FF400700290022003900320DA
:1004D000059002A9094800F041F900BF08494868A1
:1004E00020F4C04040F0E06040F48040486000BF2D
:1004F00006B010BD0064004000100240000C014036
:100500000000014070B50446002594F8210002283F
:1005100003D00420A0630125C1E02068006820F01A
:100520000E00216808602068006820F00100216842
:1005300008605C492068884252D95A497839206855
:10054000884201D1012047E0564964392068884239
:1005500001D1102040E0534950392068884201D130
:10056000801539E04F493C392068884201D1801418
:1005700032E04C4928392068884202D14FF480305B
:100580002AE0484914392068884202D14FF480108B
:1005900022E044492068884201D140041CE04249DD
:1005A0002068884201D1012016E03F4914312068BB
:1005B000884201D110200FE03B4928312068884251
:1005C00001D1801508E038493C312068884201D1CA
:1005D000801401E04FF480303349091F086051E076
:1005E000304978392068884201D1012047E02D49FF
:1005F00064392068884201D1102040E029495039EF
:100600002068884201D1801539E026493C392068AC
:10061000884201D1801432E022492839206888427A
:1006200002D14FF480302AE01E49143920688842F4
:1006300002D14FF4801022E01A492068884201D18B
:1006400040041CE018492068884201D1012016E0CE
:10065000154914312068884201D110200FE0124959
:1006600028312068884201D1801508E00E493C31CC
:100670002068884201D1801401E04FF4803009499C
:1006800080394860012084F8210000BF002084F8F0
:10069000200000BF606B10B12046616B8847284680
:1006A00070BD0000800002400804024070B505469D
:1006B00000202149086072B6002439E004EB840070
:1006C0001E4901EB80008078042801D1012000E060
:1006D000002004EB8401194A02EB810149780229C8
:1006E00001D1012100E00021084004EB8401134AFC
:1006F00002EB81018978032901D1012100E0002169
:100700000843A0B104EB84020C4B03EB8202118A74
:1007100004EB840203EB8202D068002200F0BEF9F1
:10072000002004EB8401054A02EB81018860641C0F
:10073000042CC3DB62B670BD24040040D00000204E
:1007400010B5044604480068204020B10248046007
:100750002046FFF7ABFF10BD140401402DE9F84718
:10076000024600239C467BE14FF0010808FA03F49F
:10077000D1F8008008EA0400A0427DD1DFF8F4A29D
:10078000D1F80480A8EB0A09D0453AD014DCB8F1BE
:10079000030F50D009DCB8F1000F31D0B8F1010FD0
:1007A0001CD0B8F1020F49D120E0B8F1110F18D0D8
:1007B000B8F1120F42D11EE0B9F5881F25D006DC32
:1007C000B9F5803F20D0B9F5801F37D11AE0B9F5CF
:1007D000001F18D0B9F5041F30D117E0D1F80CC0B4
:1007E0002DE0D1F80C8008F1040C28E0D1F80C8041
:1007F00008F1080C23E0D1F80C8008F10C0C1EE085
:1008000000BF00BF00BF00BF00BF00BFD1F808801D
:10081000B8F1000F02D14FF0040C0BE0D1F80880C2
:10082000B8F1010F03D14FF0080C146102E04FF052
:10083000080C546103E04FF0000C00E000BF00BF63
:10084000FF2801D8904601E002F104084646FF283F
:1008500002D84FEA830803E0A3F108084FEA8808AA
:100860004746D6F800804FF00F0909FA07F928EA41
:1008700009080CFA07F900E07AE048EA0908C6F826
:100880000080D1F8048008F08058B8F1805F6FD103
:1008900000BFDFF8E481D8F8188048F00108DFF8DD
:1008A000D891C9F81880C846D8F8188008F001080F
:1008B000CDF8008000BF00BF4FEAB9384FEA930976
:1008C00058F829504FEA83784FEA18794FF00F080B
:1008D00008FA09F825EA0805DFF8A081424502D1A7
:1008E0004FF0000824E0DFF89881424502D14FF034
:1008F00001081DE0DFF88C81424502D14FF002086B
:1009000016E0DFF88481424502D14FF003080FE082
:10091000DFF87881424502D14FF0040808E0DFF8A3
:100920007081424502D14FF0050801E04FF0060802
:100930004FEA83794FEA197908FA09F848EA050578
:10094000DFF850814FEA930948F82950D1F8048024
:1009500008F48038B8F5803F0BD1DFF83C81D8F837
:10096000008048EA0008DFF83091C9F800800AE00A
:1009700075E0DFF82481D8F8008028EA0008DFF865
:100980001891C9F80080D1F8048008F40038B8F54F
:10099000003F0ED1DFF8008108F10408D8F800808C
:1009A00048EA0008DFF8F09009F10409C9F800806E
:1009B0000DE0DFF8E48008F10408D8F8008028EAA8
:1009C0000008DFF8D49009F10409C9F80080D1F8D3
:1009D000048008F48018B8F5801F0ED1DFF8B880C5
:1009E00008F10808D8F8008048EA0008DFF8A89065
:1009F00009F10809C9F800800DE0DFF89C8008F1D2
:100A00000808D8F8008028EA0008DFF88C9009F17F
:100A10000809C9F80080D1F8048008F40018B8F576
:100A2000001F0ED1DFF8708008F10C08D8F80080A4
:100A300048EA0008DFF8609009F10C09C9F8008065
:100A40000DE0DFF8548008F10C08D8F8008028EA9F
:100A50000008DFF8449009F10C09C9F800805B1C1C
:100A6000D1F8008028FA03F8B8F1000F7FF47CAECB
:100A7000BDE8F88700001110001002400008014096
:100A8000000C01400010014000140140001801401A
:100A9000001C014008000140000401400AB101614E
:100AA00001E00B04036170470148006870470000D3
:100AB00024010020034800680349097808440149DB
:100AC00008607047240100202C01002010B5084860
:100AD000006840F0100006490860032000F0CCF8E0
:100AE000002000F007F800F049F8002010BD0000D9
:100AF0000020024070B588B0044600250026002280
:100B00002146372000F07AF8372000F067F800BF60
:100B10001648C06940F020001449C8610846C06901
:100B200000F02000019000BF00BF02A903A800F060
:100B30007DF900F0A3F945000D48B5FBF0F0461E25
:100B40000C480D49086040F2E7310B48C16046602F
:100B500000210161816000F05BFC20B9064800F0D3
:100B6000ADFC08B070BD0120FBE7000000100240A2
:100B700040420F00001400401806002008B500BFD6
:100B80001448806940F00100124988610846806974
:100B900000F00100009000BF00BF00BF0846C06920
:100BA00040F08050C8610846C06900F08050009055
:100BB00000BF00BF00220F21901E00F01FF800BFF1
:100BC0000549486820F0E06040F00070486000BFD0
:100BD00008BD000000100240000001400146084628
:100BE000002809DB00F01F0301229A4043099B0003
:100BF00003F1E023C3F8002100BF70472DE9F05F47
:100C000080460D461646002701F034FC074639465B
:100C10002A46334601F00700C0F1070ABAF1040F73
:100C200002D94FF0040A01E0C0F1070AD14600F1F1
:100C3000040ABAF1070F02D24FF0000A01E0A0F156
:100C4000030AD4464FF0010A0AFA09FAAAF1010A86
:100C50000AEA020A0AFA0CFA4FF0010B0BFA0CFB33
:100C6000ABF1010B0BEA030B4AEA0B0421464046A9
:100C700001F008FCBDE8F09F00BF00F00702064B42
:100C800019684FF6FF031940044B0B4343EA022156
:100C9000014B196000BF70470CED00E00000FA0541
:100CA00070B504460D460CB9012070BD5A48006865
:100CB00000F00700A8420ED25748006820F0070055
:100CC0002843554908600846006800F00700A8421C
:100CD00001D00120E9E7207800F0020002281DD1B0
:100CE000207800F00400042805D14C48406840F406
:100CF000E0604A494860207800F00800082805D1E3
:100D00004648406840F46050444948604348406861
:100D100020F0F000A168084340494860207800F0C6
:100D2000010078B36068012806D13C48006800F4EF
:100D3000003090B90120B8E76068022806D1374832
:100D4000006800F0007040B90120AEE73348006849
:100D500000F0020008B90120A7E73048406820F001
:100D60000300616808432D494860FFF79DFE064671
:100D700009E0FFF799FE801B41F28831884202D9D1
:100D8000032092E707E02548406800F00C00616806
:100D9000B0EB810FEDD12048006800F00700A842B9
:100DA0000ED91D48006820F0070028431A49086042
:100DB0000846006800F00700A84201D0012074E74F
:100DC000207800F00400042807D11448406820F47B
:100DD000E060E168084311494860207800F00800AD
:100DE000082808D10D48406820F46050216940EA85
:100DF000C1000A49486000F061F808494968C1F338
:100E00000311074A515CC84006490860064800685B
:100E1000FFF770FE002048E700200240001002406B
:100E20002C43000830010020280100200F2202601E
:100E30000D4A526802F0030242600B4A526802F007
:100E4000F0028260084A526802F4E062C260064A18
:100E5000526802F46052D2080261044A126802F039
:100E600007020A60704700000010024000200240A4
:100E700001480068704700003001002000B5FFF70E
:100E8000F7FF04494968C1F30221034A515CC84095
:100E900000BD0000001002403C43000800B5FFF711
:100EA000E7FF04494968C1F3C221034A515CC840C5
:100EB00000BD0000001002403C430008F0B585B0C2
:100EC0000FF26C0C9CE8E01001A8A0E8E0101CA553
:100ED0002D68009500210022002300240020194DD8
:100EE000696801F00C05F5B1042D02D0082D19D167
:100EF00001E0154819E001ADC1F38346AC5D01F492
:100F0000803555B10F4D6D68C5F340451DF805207E
:100F10000D4D6543B5FBF2F302E00C4D04FB05F308
:100F2000184602E000BF0A4800BF00BF05B0F0BD90
:100F300002030405060708090A0B0C0D0E0F10101A
:100F400001020000001002408096980000093D0058
:100F500000127A00F8B504460CB90120F8BD2078DB
:100F600000F00100002878D0F848406800F00C003C
:100F700004280CD0F548406800F00C00082811D176
:100F8000F248406800F48030B0F5803F0AD1EF4865
:100F9000006800F4003000285FD0606800285CD151
:100FA0000120DBE700BF6068B0F5803F06D1E7486D
:100FB000006840F48030E549086028E0606858B96E
:100FC000E248006820F48030E04908600846006884
:100FD00020F4802008601AE06068B0F5A02F0BD1E3
:100FE000DA48006840F48020D84908600846006864
:100FF00040F4803008600AE0D448006820F4803073
:10100000D24908600846006820F48020086000BFCC
:10101000606888B1FFF748FD054606E0FFF744FD2C
:10102000401B642801D9032098E7C848006800F4F1
:1010300000300028F2D010E0FFF736FD054606E04C
:10104000FFF732FD401B642801D9032086E7BF4823
:10105000006800F400300028F2D1207800F002008F
:10106000022857D1B948406800F00C0050B1B74889
:10107000406800F00C00082818D1B448406800F41B
:10108000803098B9B148006800F0020020B12069B2
:10109000012801D0012061E7AC48006820F0F80089
:1010A000616940EAC100A949086033E02069E8B1FC
:1010B0000120A7490860FFF7F7FC054606E0FFF7A7
:1010C000F3FC401B022801D9032047E79F48006832
:1010D00000F002000028F2D09C48006820F0F800E0
:1010E000616940EAC1009949086013E0002098490D
:1010F0000860FFF7D9FC054606E0FFF7D5FC401B6A
:10110000022801D9032029E79048006800F0020076
:101110000028F2D1207800F0080008282DD1A0691D
:10112000B8B101208B490860FFF7BEFC054606E018
:10113000FFF7BAFC401B022801D903200EE78348C1
:10114000406A00F002000028F2D0012000F03AFED0
:1011500013E000207F490860FFF7A6FC054606E083
:10116000FFF7A2FC401B022801D90320F6E67748CE
:10117000406A00F002000028F2D1207800F004005C
:10118000042873D100277148C06900F0805070B9FD
:1011900000BF6E48C06940F080506C49C861084685
:1011A000C06900F08050009000BF00BF01276A486E
:1011B000006800F48070B0B96748006840F480703F
:1011C00065490860FFF770FC054606E0FFF76CFC18
:1011D000401B642801D90320C0E65F48006800F482
:1011E00080700028F2D000BFE068012806D157487F
:1011F000006A40F001005549086227E0E06858B9EC
:101200005248006A20F00100504908620846006A0E
:1012100020F00400086219E0E06805280BD14B4873
:10122000006A40F00400494908620846006A40F03C
:10123000010008620AE04548006A20F001004349C5
:1012400008620846006A20F00400086200BFE068F7
:10125000A0B1FFF729FC054609E0FFF725FC401B7C
:1012600041F28831884202D9032077E622E03748EC
:10127000006A00F002000028EFD012E0FFF714FC33
:10128000054608E0FFF710FC401B41F28831884218
:1012900001D9032062E62D48006A00F00200002810
:1012A000F0D1012F05D12948C06920F0805027498D
:1012B000C86100BFE069C8B32448406800F00C0072
:1012C000082860D0E069022848D10020204908663B
:1012D000FFF7EAFB054606E0FFF7E6FB401B0228A6
:1012E00001D903203AE61948006800F00070002890
:1012F000F2D1206AB0F5803F07D11448406820F44D
:101300000030A168084311494860D4E90801084346
:101310000E49496821F4741108430C4948600120C2
:101320000B490866FFF7C0FB054607E03DE0FFF705
:10133000BBFB401B022801D903200FE603480068CD
:1013400000F000700028F2D02FE0000000100240F2
:1013500000004242800442420070004000201449D4
:101360000866FFF7A1FB054606E0FFF79DFB401B63
:10137000022801D90320F1E50E48006800F0007052
:101380000028F2D111E0E069012800D1E6E5094822
:10139000466806F48031206A814204D106F4701157
:1013A000606A814201D00120D8E50020D6E5000026
:1013B00000004242001002407047704710B50246DC
:1013C00000BF92F83C00012801D1022010BD01208D
:1013D00082F83C0000BF022082F83D00106843689C
:1013E0001068846823F070030868034324F08004C5
:1013F000486804431068436010688460012082F8E4
:101400003D0000BF002082F83C0000BF00BFDDE7C8
:1014100010B504460CB9012010BD94F83D0028B960
:10142000002084F83C00204600F00CF8022084F8EC
:101430003D00211D206800F0A1FD012084F83D0041
:101440000020E9E738B504462068B0F1804F16D196
:1014500000BF1848C06940F001001649C86108463D
:10146000C06900F00100009000BF00BF002205210C
:101470001C20FFF7C3FB1C20FFF7B0FB19E00E494F
:101480002068884215D100BF0A48C06940F00200B8
:101490000849C8610846C06900F00200009000BF1A
:1014A00000BF002205211D20FFF7A8FB1D20FFF72C
:1014B00095FB38BD0010024000040040014608685A
:1014C000C06840F001000B68D8600868806800F0D0
:1014D0000702062A05D00868006840F001000B6882
:1014E00018600020704701460868C06820F00100BD
:1014F0000A68D06000BF0868006A41F2111210400B
:1015000050B90868006A9210104028B9086800684D
:1015100020F001000A68106000BF002070472DE92C
:10152000F04104460D4600BF94F83C00012802D16A
:101530000220BDE8F081012084F83C0000BF0220B9
:1015400084F83D002068866826F0770626F47F46FA
:10155000206886602868502833D00CDC202850D0C2
:1015600004DC00284BD0102851D149E0302849D064
:1015700040284CD139E060282DD0702807D0B0F534
:10158000805F03D0B0F5005F41D10DE040E0D5E9C8
:1015900002136A68206800F03FFD2068866846F004
:1015A00077062068866033E0D5E902136A68206810
:1015B00000F032FD2068806840F480402168886037
:1015C00026E0EA686968206800F03AFD502120684A
:1015D00000F02DFD1CE0EA686968206800F043FD1A
:1015E0006021206800F023FD12E0EA686968206845
:1015F00000F026FD4021206800F019FD08E000BF42
:1016000000BF00BF2968206800F011FD00E000BFA6
:1016100000BF012084F83D0000BF002084F83C009A
:1016200000BF00BF85E7704710B504462068006919
:10163000C0F34000D8B12068C068C0F34000B0B12A
:101640006FF002002168086101202077206880691E
:1016500000F0030018B12046FFF7E5FF05E0204643
:1016600000F0ADF8204600F0ABF8002020772068AD
:101670000069C0F38000D8B12068C068C0F3800062
:10168000B0B16FF004002168086102202077206863
:10169000806900F4407018B12046FFF7C4FF05E0F0
:1016A000204600F08CF8204600F08AF800202077D1
:1016B00020680069C0F3C000D8B12068C068C0F3DA
:1016C000C000B0B16FF008002168086104202077E5
:1016D0002068C06900F0030018B12046FFF7A3FF9F
:1016E00005E0204600F06BF8204600F069F8002085
:1016F000207720680069C0F30010D8B12068C06866
:10170000C0F30010B0B16FF010002168086108202C
:1017100020772068C06900F4407018B12046FFF7B8
:1017200082FF05E0204600F04AF8204600F048F825
:10173000002020772068006900F0010058B120687F
:10174000C06800F0010030B16FF00100216808614D
:10175000204600F037F820680069C0F3C01058B187
:101760002068C068C0F3C01030B16FF080002168FD
:1017700008612046FFF720FE20680069C0F3801052
:1017800058B12068C068C0F3801030B16FF04000DD
:1017900021680861204600F029F820680069C0F33C
:1017A000401058B12068C068C0F3401030B16FF0ED
:1017B0002000216808612046FFF7FFFD10BD70473B
:1017C0007047000010B5044606492068884201D1E0
:1017D000FFF770F904492068884201D101F07AFED0
:1017E00010BD000000140040000400407047704726
:1017F0002DE9F0470446206805682068C66820681F
:1018000047694FF00008C14605F00F08B8F1000F16
:101810000AD105F0200038B106F0200020B12046A2
:1018200000F05FFCBDE8F087B8F1000F6DD007F065
:10183000010018B906F49070002866D005F0010088
:1018400030B106F4807018B1E06B40F00100E06345
:1018500005F0040030B107F0010018B1E06B40F072
:101860000200E06305F0020030B107F0010018B19A
:10187000E06B40F00400E06305F0080030B107F0D1
:10188000010018B1E06B40F00800E063E06B68B362
:1018900005F0200028B106F0200010B1204600F02D
:1018A00020FC20684069C0F38019E06B00F008005C
:1018B00010B9B9F1000F22D0204600F0F2FB2068E9
:1018C000406900F04000B0B12068406920F040005D
:1018D00021684861606B50B11748616B4863606B69
:1018E000FEF710FE10B1606B416B88470CE020469C
:1018F000FFF77DFF08E02046FFF779FF04E0204670
:10190000FFF775FF0020E0638CE705F0800030B141
:1019100006F0800018B1204600F006FD82E705F0D1
:10192000400030B106F0400018B1204600F0C9FB7D
:1019300078E700BF76E700008F20000810B5044666
:101940000CB9012010BDA06900B100E000BF94F8FF
:10195000390028B9002084F83800204600F028F823
:10196000242084F839002068C06820F400502168E1
:10197000C860204600F008FC2068006920F4904010
:10198000216808612068406920F02A0021684861C8
:101990002068C06840F400502168C8600020E063FF
:1019A000202084F8390084F83A000020CAE70000BB
:1019B00010B586B004460020029003900490059074
:1019C0001D492068884235D100BF1C48C06940F4D9
:1019D00000301A49C8610846C06900F4003001901F
:1019E00000BF00BF00BF0846806940F00400886166
:1019F0000846806900F00400019000BF00BF042089
:101A00000290022003900320059002A90C48FEF7E3
:101A1000A5FE0820029000200390049002A9084827
:101A2000FEF79CFE002205212620FFF7E7F826207E
:101A3000FFF7D4F806B010BD00440040001002408B
:101A40000008014070472DE9F84304460D4616464C
:101A50001F464FF0000994F8390020285CD105B1E9
:101A600016B90120BDE8F88300BF94F838000128BA
:101A700001D10220F6E7012084F8380000BF0020E1
:101A8000E063212084F83900FFF70EF88146A68430
:101A9000E6842BE0E08C401EE084A068B0F5805F17
:101AA00016D14B46002280212046009700F070FCA2
:101AB00008B10320D6E7A846B8F80000C0F3080034
:101AC00021684860206908B9AD1C0FE06D1C0DE06D
:101AD0004B46002280212046009700F059FC08B1B7
:101AE0000320BFE715F8010B21684860E08C00284F
:101AF000D0D14B46002240212046009700F048FC00
:101B000008B10320AEE7202084F8390000BF002090
:101B100084F8380000BFA5E70220A3E7704700BFA4
:101B2000FEE7000010B50B480B4908601020486024
:101B3000002109488160C1600161416101764176FF
:101B40008176C17601774177FEF7D1FB08B1FEF7C8
:101B5000C0FB10BD00640040DC02002000B587B06F
:101B60001C2206496846FEF74BFB0021684601F03F
:101B700083F90349086007B000BD00001043000866
:101B80002001002000B585B0002001900290039054
:101B9000049000BF4248806940F0200040498861BD
:101BA0000846806900F02000009000BF00BF00BF21
:101BB0000846806940F0100088610846806900F09E
:101BC0001000009000BF00BF00BF0846806940F0D1
:101BD000040088610846806900F00400009000BF9E
:101BE00000BF00BF0846806940F0080088610846D1
:101BF000806900F00800009000BF00BF00220221B1
:101C00002848FEF74BFF002233212748FEF746FF06
:101C100001224FF4E0412448FEF740FF0E200190DE
:101C200000200290039001A92048FEF797FD0220B2
:101C3000019001200290002003900320049001A94C
:101C40001848FEF78BFD3320019001200290002000
:101C500003900320049001A91348FEF77FFD4FF481
:101C6000E0400190012002900020039002200490A7
:101C700001A90D48FEF772FD082001900C48029062
:101C80000020039001A90848FEF768FD0022052105
:101C90000920FEF7B3FF0920FEF7A0FF05B000BD45
:101CA0000010024000080140000C014000100140FB
:101CB0000000111000B587B000200390049005903B
:101CC0000690019002904FF0804012490860002079
:101CD000486000210F488160C16001618161FFF7A8
:101CE00097FB08B1FEF7F5FA4FF48050039003A973
:101CF0000848FFF714FC08B1FEF7EBFA002001904A
:101D0000029001A90348FFF759FB08B1FEF7E1FA79
:101D100007B000BD5805002000B587B00020039033
:101D200004900590069001900290144814490860B0
:101D30004520486000211248816040F2E731C160CF
:101D4000002101618161FFF763FB08B1FEF7C1FA71
:101D50004FF48050039003A90948FFF7E0FB08B156
:101D6000FEF7B7FA00200190029001A90448FFF79E
:101D700025FB08B1FEF7ADFA07B000BD0004004036
:101D80009805002010B50B480B4908604FF4E1306E
:101D90004860002108488160C16001610C214161F7
:101DA00000218161C161FFF7C9FD08B1FEF791FA19
:101DB00010BD000000440040D805002000BFFEE731
:101DC0007047000008B508490968C9084FF47A72DD
:101DD000B1FBF2F14143009100BF00BF00994A1EE0
:101DE00000920029F9D108BD3001002008B500207B
:101DF0004FF4E13303220121009000F00BFE00F0CC
:101E000065FB0548FFF75AFB00BF00F073FE012099
:101E100001F021F8F9E700009805002010B500BF97
:101E2000502080F31188BFF34F8FBFF36F8F00BF37
:101E300002F048F818B14FF080500449086000BF24
:101E4000002080F3118800BF10BD000004ED00E009
:101E500000B58FB0282105A8FEF7EBF914216846DC
:101E6000FEF7E7F901200590000406904000079076
:101E70000120099002200C90C1030D914FF44011F4
:101E80000E9105A8FFF766F808B1FEF722FA0F20B9
:101E9000009002200190002002904FF48060039097
:101EA0000020049002216846FEF7FAFE08B1FEF712
:101EB00010FA0FB000BD00001148006840F00100AA
:101EC0000F490860084640680E4908400C494860C0
:101ED000084600680C49084009490860084600683F
:101EE00020F4802008600846406820F4FE00486026
:101EF0004FF41F008860C803044908607047000061
:101F0000001002400000FFF8FFFFF6FE08ED00E0C1
:101F100010B50F480068006900F00100A0B10C483E
:101F20000068C06800F0010070B16FF0010008495E
:101F30000968086107480088401E80B2054908808A
:101F400010B90548006880470148FFF76DFB10BDD8
:101F500058050020CE0000203000002010B50248B7
:101F6000FFF762FB10BD00009805002010B5024885
:101F7000FFF75AFB10BD00001806002010B50268DC
:101F8000204B98420ED0204B98420BD0B0F1804F9E
:101F900008D01E4B984205D01D4B984202D01D4BD5
:101FA000984203D122F070024B681A43154B9842B5
:101FB0000ED0154B98420BD0B0F1804F08D0134B88
:101FC000984205D0124B984202D0124B984203D14E
:101FD00022F44072CB681A4322F080034C6943EA32
:101FE000040202608B68C3620B688362054B9842EF
:101FF00002D0054B984201D10B6903630123436171
:1020000010BD0000002C01400034014000040040DD
:1020100000080040000C004030B50C46816821F4F7
:102020007F4142EA032525432943816030BD0A46AA
:10203000816821F0700142F0070319438160704705
:1020400030B50B461446026A056A25F001050562A3
:10205000816921F0F00141EA041122F00A021A43D9
:102060008161026230BD30B50B461446056A25F029
:10207000100505628169026A21F4704141EA043168
:1020800022F0A00242EA03128161026230BD70B503
:1020900005466C6A0020E085E0842046FFF7A7FB38
:1020A00070BD0168C96821F490710268D16001684F
:1020B000496921F0010102685161202180F83A103C
:1020C000704710B504462068C06820F040002168C1
:1020D000C860202084F839002046FFF71FFD00204B
:1020E00010BD70B5044694F83A0022284AD1A06881
:1020F000B0F5805F13D1A56A206940B920684068B7
:10210000C0F308002880A06A801CA06219E0206843
:102110004068C0B22880A06A401CA06211E020691B
:1021200038B920684068C1B2A26A501CA062117020
:1021300007E02068406800F07F01A26A501CA0629E
:102140001170E08D401E80B2E085C8B92068C0687B
:1021500020F020002168C8602068C06820F48070EA
:102160002168C8602068406920F00100216848614A
:10217000202084F83A002046FFF764FC002070BD60
:102180000020FCE70220FAE770B5044621680969DF
:1021900021F44051E2681143226811612269A1686B
:1021A0001143626941EA02052168C96841F20C6283
:1021B000914329432268D1602168496921F4407123
:1021C000A269114322685161564A2168914254D153
:1021D000FEF764FE00EBC00101EB001162689200A3
:1021E000B1FBF2F100EBC00202EB001263689B004E
:1021F000B2FBF3F26423B2FBF3F202EBC20303EB94
:102200000212A1EB8201322202EB01116422B1FB26
:10221000F2F101F0F00100EBC00202EB0012636882
:102220009B00B2FBF3F26423B2FBF3F201EB021268
:1022300000EBC00101EB001163689B00B1FBF3F1FF
:1022400000EBC00303EB00136668B600B3FBF6F3C4
:102250006426B3FBF6F303EBC30606EB0313A1EB13
:102260008301322303EB01116423B1FBF3F101F08D
:102270000F0111442268916053E0FEF7FFFD00EB6F
:10228000C00101EB001162689200B1FBF2F100EBBA
:10229000C00202EB001263689B00B2FBF3F26423FE
:1022A000B2FBF3F202EBC20303EB0212A1EB8201D9
:1022B000322202EB01116422B1FBF2F101F0F001D4
:1022C00000EBC00202EB001263689B00B2FBF3F26A
:1022D0006423B2FBF3F201EB021200EBC00101EB4D
:1022E000001163689B00B1FBF3F100EBC00303EB4B
:1022F00000136668B600B3FBF6F36426B3FBF6F38F
:1023000003EBC30606EB0313A1EB8301322303EBBC
:1023100001116423B1FBF3F101F00F0111442268B4
:10232000916070BD00380140014691F839002128C4
:102330002CD18868B0F5805F0FD10A6A1088C0F38D
:1023400008000B685860086918B9086A801C0862A0
:1023500009E0086A401C086205E00B6A581C086224
:1023600018780B685860C88C401E80B2C88458B971
:102370000868C06820F080000B68D8600868C068F2
:1023800040F040000B68D860002070470220FCE756
:102390002DE9F04104460D4617469846069E21E079
:1023A000701CF8B12EB1FEF77FFBA0EB0800B04225
:1023B00018D92068C06820F4D0702168C8602068EF
:1023C000406920F0010021684861202084F839002C
:1023D00084F83A0000BF002084F8380000BF0320D2
:1023E000BDE8F081206800682840A84201D10120A2
:1023F00000E00020B842D3D00020F1E738B51948FA
:1024000000680068C0F3401516480068C06800F016
:1024100020048DB184B114480068804700BF0020BB
:10242000009010480068006800900E4800684068FE
:10243000009000BF00BF38BD0A4800680068C0F3C4
:10244000C01048B107480068C06800F0800018B1AB
:10245000064800688047EEE70248FFF7C9F900BF69
:10246000E9E70000D8050020280000202C0000200B
:1024700000BFFEE702480068C0F30220704700007A
:102480000CED00E010B5002804DB0A07130E054A26
:10249000135406E00A07140E034A00F00F031B1F33
:1024A000D45410BD00E400E018ED00E002E008C8DC
:1024B000121F08C1002AFAD170477047002001E0BE
:1024C00001C1121F002AFBD17047000010B5002483
:1024D00006480078012806D105480068804700209A
:1024E0000249087000E00624204610BD12000020BA
:1024F000180000202DE9F05F06460D464FF0000B56
:102500002888052848D170784FEA0029B07840EA39
:10251000090909F101001FFA80F9F0780402307905
:102520000443012C35DBB4F5FA6F32DA374600206C
:102530002880012007F8010B2888401C288004F01F
:10254000070040B12046E11704EB5171C910491C46
:1025500001F0FF0805E02046E11704EB5171C1F3DB
:10256000C70807F8018B2888401C288000232246D2
:102570004946384600F004FC8246BAF1000F04D008
:10258000504600F0E5FE834608E028884044288055
:1025900004E04FF0030B01E04FF0030B5846BDE899
:1025A000F09F2DE9F05F06460D464FF0000B28889E
:1025B000052847D170784FEA0029B07840EA090928
:1025C00009F101001FFA80F9F07804023079044320
:1025D000012C34DBB4F5FA6F31DA3746002028805D
:1025E000022007F8010B2888401C288004F007000F
:1025F00040B12046E11704EB5171C910491C01F0AC
:10260000FF0805E02046E11704EB5171C1F3C7084C
:1026100007F8018B2888401C288022464946384606
:1026200000F0B5FB8246BAF1000F04D0504600F02E
:102630008FFE834608E028884044288004E04FF05D
:10264000030B01E04FF0030B5846BDE8F09F2DE966
:10265000F04705460C464FF0000A2088052838D17F
:1026600068784FEA0028A87840EA080808F10100D5
:102670001FFA80F8E878060228790643012E25DB48
:102680007D2E23DC2F4600202080032007F8010B3D
:102690002088401C20807006000E07F8010B20885F
:1026A000401C2080002332464146384600F075FB2E
:1026B0008146B9F1000F04D0484600F049FE824639
:1026C00009E0208800EB4600208004E04FF0030A78
:1026D00001E04FF0030A5046BDE8F0872DE9F047CE
:1026E00005460C464FF0000A2088052837D1687847
:1026F0004FEA0028A87840EA080808F101001FFA0C
:1027000080F8E878060228790643012E24DB7D2E26
:1027100022DA2F4600202080042007F8010B2088B1
:10272000401C20807006000E07F8010B2088401C1A
:10273000208032464146384600F057FB8146B9F1C9
:10274000000F04D0484600F003FE824609E02088CE
:1027500000EB4600208004E04FF0030A01E04FF058
:10276000030A5046BDE8F0872DE9FC5F04460D469C
:102770000020009028880A285DDB60784FEA002A54
:10278000A07840EA0A0A0AF101001FFA80FAE0780C
:1027900006022079064360794FEA002BA07940EACF
:1027A0000B0B0BF101001FFA80FBE0790702207A86
:1027B0000743607A0190012E3BDB7D2E39DC012F2F
:1027C00037DB792F35DC79000198814231D1012343
:1027D0003A46594604F10A0000F0DFFA8146B9F1A1
:1027E000000F1ED1A04600202880172008F8010BFA
:1027F0002888401C28807006000E08F8010B2888E5
:10280000401C2880002332465146404600F0C5FA5D
:102810008146B9F1000F04D12888022101FB06008E
:102820002880B9F1000F06D0484600F091FD0090D5
:1028300001E0032000900098BDE8FC9F70B50546BC
:102840000C46064802880649681CFDF7D9FC034877
:102850000088401C2080002070BD00000000002087
:10286000940100202DE9F84304460F464FF000087C
:102870003888052829D160780502A0780543681CAE
:1028800085B22079F0B9E078FF2801D0E078C8B9A6
:1028900000208DF80100E078FF2803D101208DF899
:1028A000000002E000208DF8000001231A462946AE
:1028B000684600F065FA06464EB1304600F048FD25
:1028C000804604E04FF0030801E04FF00308404663
:1028D000BDE8F8832DE9F04104460F464FF00008AB
:1028E0003888052812D160780502A0780543681C55
:1028F00085B201231A462946E01C00F04EFA06462E
:1029000036B1304600F024FD804601E04FF0030868
:102910004046BDE8F0812DE9F05F05460E464FF0D8
:10292000000B3088052839DD68780702A87807434E
:10293000781C87B2E87804022879044395F805A04A
:1029400004F0070040B12046E11704EB5171C910B3
:10295000491C01F0FF0805E02046E11704EB517126
:10296000C1F3C708012C16DBB4F5F66F13DCD045B4
:1029700011D1012322463946A81D00F001FA8146F3
:10298000B9F1000F04D0484600F0E2FC834607E0AE
:102990000520308004E04FF0030B01E04FF0030B03
:1029A0005846BDE8F09F2DE9F04704460E464FF02B
:1029B000000A3088062828DB60780702A0780743E1
:1029C000781C87B2E07805022079054394F80590D9
:1029D000012D17DB782D15DC6806000E484511D156
:1029E00001232A463946A01D00F0D7F98046B8F1E8
:1029F000000F04D0404600F0ABFC824607E0052003
:102A0000308004E04FF0030A01E04FF0030A504623
:102A1000BDE8F0872DE9F04705460C4616461F46EF
:102A2000DDF820904FF000081CB1012C01DBF72CE1
:102A300002DD4FF0020835E01C48047005BB1C485D
:102A40001C4908601C481D4908601D481D49086054
:102A50001D481E49086000201D4908601D481E4988
:102A600008601E481E4908601E481F4908604B4602
:102A70003A4631460D48007800F0D2F8804602E030
:102A80004FF0020800BF00BFB8F1000F0AD100F0FC
:102A9000D5FF10B94FF0030804E014480570012079
:102AA000134908704046BDE8F08700001000002080
:102AB0004D2D0008180000206D2D00081C0000207E
:102AC000C12C000814000020752C000820000020F4
:102AD000240000207D3B000828000020453C000821
:102AE0002C000020053C00083000002011000020D0
:102AF0001200002038B500253F48007808B10620B4
:102B000038BD684600F088FF012873D19DF80000A9
:102B1000012806D0022805D0042818D0082868D13A
:102B200066E066E0354A36493648374B1B689847B9
:102B300005465DB93348007834490978884202D0A7
:102B40003048007810B9042000F080FF51E02C4894
:102B5000006800782E49087001202E490870002472
:102B600017E02D4810F8340000B914E02A4810F896
:102B700034002749097888420AD1274800EBC4006D
:102B80001E4942681E48006890472249087002E0CA
:102B9000641C102CE5DB00BF1A48007830B31D48D8
:102BA0000078C8B10020154908801948007840F025
:102BB0008001124802880088401C104B1880104881
:102BC0000068815413480178184602880088401C28
:102BD00018800B480068815408480288084801683A
:102BE0000A4800780D4B1B689847054601E001E054
:102BF00000BF00BF002083E712000020C2000020B9
:102C0000BC000020C0000020200000201000002098
:102C1000C1000020C40000203C000020140000205F
:102C20002DE9F04781460E4614461F464FF0000836
:102C300072B63B4608222146304600F01DFF0128AF
:102C400002D04FF003080FE0B4F5964F01D92325C9
:102C500003E060000649B1FBF0F5A8B200F05EFFAA
:102C6000012801D04FF0030862B64046BDE8F08766
:102C7000A07F17002DE9F04104460D4616460027B7
:102C800072B60D480088042810DB0B4801880B48F9
:102C900000F080FC50B90948007820700648008890
:102CA000C01E30800548401C286000E0052762B641
:102CB0003846BDE8F08100000E000020B40100207D
:102CC0002DE9F04105460E4617464FF0000872B652
:102CD00019480078012829D1701E18490860012080
:102CE0001749088015480068057008460088384470
:102CF0000880084601881148006800F04BFC044633
:102D00000F490888411C0E4B19800E490C542212A1
:102D100019460888411C19800A490A5401200A49A9
:102D200008700121002000F0A7FC01E04FF0050829
:102D300062B64046BDE8F081050000200800002092
:102D40000C000020B40100200400002010B572B671
:102D50000020054908700021012000F08DFC00F0E2
:102D6000D1FC62B610BD00000500002010B572B69F
:102D70000021084600F080FC00F0BCFC62B610BDEB
:102D800010B5044609B1481E81B2012010BD0346AA
:102D900009B1481E81B20120704730B5044609B11F
:102DA0004D1EA9B2002013B1012B1AD100E01AE088
:102DB00011B1012911D10FE0657835B1012D05D090
:102DC000022D04D0032D04D102E003E002E001E073
:102DD00000E000BF00BF02E001E0012000BF00BF33
:102DE00001E0022000BF00BF30BD10B5034609B1AD
:102DF0004C1EA1B20020012010BD0000FDF766FEB0
:102E0000FFF726F8FEF7BEFEFEF78CFEFEF784FF06
:102E1000FEF7B8FFFEF74EFF09490A48FDF75AFAD8
:102E20000848006A28B94FF4E130064908620C20CE
:102E30004862FEF793FE00F01AF800BFFEE70000BC
:102E400000FC0308B402002001460020842901D0C0
:102E5000CA1C1044704770B5044625460DB129467A
:102E600000E00121084600F003FD002070BD10B510
:102E700000F02CFD002010BD7FB504460D466069B2
:102E800098B1A06988B1B4F90800FFF7DDFF0646E4
:102E9000D4E90510CDE9006102902B462269D4E9FE
:102EA000001000F0B3FF039013E0B4F90800FFF73F
:102EB000CBFF064603A8CDE90060238A9AB22B46D1
:102EC000D4E9001000F070FF012802D0002004B007
:102ED00070BD0398FBE700002DE9F04105460E4662
:102EE0001C4807681C480068001D00F06FFB50B9C3
:102EF0001948006890F82C1001208840174909688B
:102F0000814316480160681C38B936B1124801681F
:102F1000091D134800F0A4FB1AE07C190E48006854
:102F20004460BC4207D20C480168091D0D48006886
:102F300000F07CFB0CE008480168091D0A480068A5
:102F400000F074FB09480068844201D2074804601D
:102F5000BDE8F08148010020340100204C01002030
:102F6000340700203C0100203801002064010020CB
:102F700010B5044600F0D6FB23480068401C2249E7
:102F800008602248006840B920480460084600688C
:102F900001280DD100F03AF90AE01D48006838B95F
:102FA0001A480068C06AE16A884201D8174804607C
:102FB00018480068401C1749086094F82C1001203C
:102FC000884015490968084313490860E16A01EB24
:102FD0008101124A02EB8100211D00F041FB00F04B
:102FE000CBFB0B48006868B108480068C06AE16A1A
:102FF000884207D24FF0805009490860BFF34F8FD5
:10300000BFF36F8F10BD0000440100203401002089
:1030100050010020600100204C01002058060020D3
:1030200004ED00E010B516E000F07CFB0C48C06831
:10303000C468201D00F0CAFA0A480068401E094909
:10304000086009480068401E0749086000F094FBCA
:10305000204600F00BF8044800680028E4D110BDB9
:1030600020070020440100204001002010B5044644
:1030700094F8510030B9206B00F09CFB204600F022
:1030800099FB1AE094F85100012803D1204600F082
:1030900091FB12E094F85100022801D1012000E0D8
:1030A000002050B900BF502080F31188BFF34F8F2C
:1030B000BFF36F8F00BF00BFFEE710BD30B54FF408
:1030C0004063174800F007042CB1C01D20F0070032
:1030D000134C041B1B1B0246124C22600024114D92
:1030E0006C60D018083820F007000F4C20600024D6
:1030F0000D4D2D686C600C4D2D682C601146441AE6
:103100004C60094C24680C60084D4C682C60084DDC
:103110004C682C604FF00044064D2C6030BD000020
:103120004807002070010020780100208001002065
:103130007C0100208401002000BFFFF773FF0648D8
:1031400000680128F9D94FF0805004490860BFF3A6
:103150004F8FBFF36F8FF0E75806002004ED00E0BB
:103160002DE9FF5F81460F469246DDE90E6B109C0C
:10317000AAF10100216B01EB800828F0070808F094
:10318000070008B9012000E0002050B900BF50201E
:1031900080F31188BFF34F8FBFF36F8F00BF00BF65
:1031A000FEE7002507E0795D04F134004155785DC4
:1031B00000B902E06D1C102DF5D300BF00214320A3
:1031C0000155072E00D30626E66266640020A0643F
:1031D000201D00F028FA04F1180000F024FA246100
:1031E000C6F10700A06164620020E06484F850002A
:1031F00049464046039A00F05BF92060BBF1000F9E
:1032000001D0CBF80040BDE8FF9F000010B50024BE
:1032100007E004EB84010F4A02EB810000F0F6F9AD
:10322000641C072CF5D30C4800F0F0F90B4800F0B3
:10323000EDF90B4800F0EAF90A4800F0E7F90A480E
:1032400000F0E4F9044809490860044808490860A6
:1032500010BD000058060020E4060020F8060020FB
:103260000C07002020070020340700203801002030
:103270003C01002010B50146164800E000680368D4
:103280008B42FBD30246436813448B4204D143680C
:103290004C682344436001460A464B681344046863
:1032A000A34211D10C4C03682468A34208D04B6898
:1032B0000468646823444B6003681B680B6005E086
:1032C000054B1B680B6001E003680B60884200D06F
:1032D000016010BD70010020780100200A490968D2
:1032E000096809B9012100E0002121B14FF0FF3147
:1032F000064A116006E004490968C968C868034ABB
:10330000416811607047000038010020640100200E
:103310000E480068401C08B9012000E0002050B9A8
:1033200000BF502080F31188BFF34F8FBFF36F8F22
:1033300000BF00BFFEE700BF502080F31188BFF33D
:103340004F8FBFF36F8F00BF00BFFEE788010020E3
:10335000014621B1012904D0072906D103E000204C
:1033600005E0022003E0062001E0042000BF00BFCA
:10337000704700002DE9F04104464FF0000800F0CE
:10338000FDFA4648006808B9FFF798FE444800680F
:10339000204000286BD1D4B1083404F00700B0B14C
:1033A00004F00700C0F10800044404F0070008B965
:1033B000012000E0002050B900BF502080F31188A8
:1033C000BFF34F8FBFF36F8F00BF00BFFEE7002C2E
:1033D0004DD034480068844249D8334E30460568A1
:1033E00001E02E462D686868A04202D228680028B5
:1033F000F7D12A480068854239D0306800F10808C2
:10340000286830606868001B102819D92F1907F048
:10341000070008B9012000E0002050B900BF50208B
:1034200080F31188BFF34F8FBFF36F8F00BF00BFD2
:10343000FEE76868001B78606C603846FFF71AFF8B
:10344000184968680968081A16490860084600683B
:1034500016490968884203D2124800681349086077
:103460000F4968680968084368600020286000F018
:10347000CDFD08F0070008B9012000E0002050B998
:1034800000BF502080F31188BFF34F8FBFF36F8FC1
:1034900000BF00BFFEE74046BDE8F0817801002094
:1034A000840100207C0100207001002080010020A8
:1034B000001F4FF080730360001F21F001030360C1
:1034C000001F034B0360143802602038704700006F
:1034D0001133000810B572B6002455E004EB8400E7
:1034E0002B4901EB80008078032827D104EB84006E
:1034F00001EB80008068401C04EB8401244A02EB4D
:103500008101886004EB8400114601EB8000806833
:1035100004EB840102EB81014968884233D304EB58
:1035200084021B4B03EB8202118A04EB840203EB3F
:103530008202D0680122FDF7B1FA24E004EB840096
:10354000134901EB80008078042801D1012000E0BC
:10355000002004EB84010E4A02EB81014978012925
:1035600000D100E00021084068B104EB8402084B60
:1035700003EB8202118A04EB840203EB8202D0681F
:103580000122FDF78BFA641C042CA7DB62B610BD88
:10359000D000002070B502460C46FF25FF2309E04D
:1035A00012F8010B80EA03010648405C80EA05033B
:1035B0000548455C201EA4F10106B4B2F0D143EAEF
:1035C000052070BD104100081042000801460A693C
:1035D000D1E901309860D1E9010358605068884210
:1035E00001D188685060002008611068401E10609A
:1035F00010687047034B0360034B0B60802313601C
:1036000070470000040300205803002000F1080167
:1036100041604FF0FF31816000F10801C16001613C
:1036200000210160704700210161704710B502461A
:103630000B685C1C0CB9106907E002F1080000E09F
:103640004068446824689C42FAD944684C604C68DD
:10365000A160886041600A611468641C146010BD38
:1036600042684A6093688B60936859609160086112
:1036700003685B1C0360704770B505460C467DB15E
:103680001A4800680068C06840F0200017490968BF
:103690000968C860002202211548FDF7FFF90EE015
:1036A000012202211248FDF7F9F91048006800686C
:1036B000C06820F020000D4909680968C86054B14D
:1036C0000A4800680068C06840F08000074909683F
:1036D0000968C86009E0054800680068C06820F013
:1036E0008000024909680968C86070BDC8000020F0
:1036F0000008014010B50248FDF7F5FE10BD0000BE
:103700005805002010B50448008804490880044882
:10371000FDF7D4FE10BD0000CC000020CE0000203C
:103720005805002000BF502080F31188BFF34F8F51
:10373000BFF36F8F00BF0E480068401C0C49086043
:1037400008460068012812D10A480068C0B208B9CA
:10375000012000E0002050B900BF502080F3118804
:10376000BFF34F8FBFF36F8F00BF00BFFEE77047FF
:103770008801002004ED00E00D48006850B900BF4A
:10378000502080F31188BFF34F8FBFF36F8F00BFBE
:1037900000BFFEE706480068401E0549086008466D
:1037A000006820B9002080F3118800BF00BF704777
:1037B0008801002070B506463546002E3FD0083DF2
:1037C0002C461F4960680968084008B1012000E0E4
:1037D000002050B900BF502080F31188BFF34F8FF5
:1037E000BFF36F8F00BF00BFFEE7206808B901205C
:1037F00000E0002050B900BF502080F31188BFF3D3
:103800004F8FBFF36F8F00BF00BFFEE70C496068AA
:103810000968084098B1206888B909496068096852
:103820008843606000F0AAF80649606809680844A7
:10383000044908602046FFF71DFD00F0E7FB70BD5E
:10384000840100207C01002000204FF0E02108616D
:103850008861064800684FF47A71B0FBF1F0401EB1
:103860004FF0E021486107200861704730010020D7
:1038700070B504460025D4B11248006808B901208B
:1038800000E0002050B900BF502080F31188BFF342
:103890004F8FBFF36F8F00BF00BFFEE700F06EF8E1
:1038A00000212046FFF718FB00F0B0FB05463DB9AC
:1038B0004FF0805004490860BFF34F8FBFF36F8F04
:1038C00070BD00006C01002004ED00E010B586B072
:1038D00000200590049003AA04A905A8FFF78AFE1A
:1038E0000022DDE904101346CDE9002102901CA15D
:1038F0001D48039A00F08AFA1C49086008460068CF
:1039000008B1012400E00024012C15D100BF502093
:1039100080F31188BFF34F8FBFF36F8F00BF4FF05D
:10392000FF30134908600120124908600020124945
:10393000086000F0BDF910E0601C08B1012000E053
:10394000002050B900BF502080F31188BFF34F8F83
:10395000BFF36F8F00BF00BFFEE706B010BD0000D1
:1039600049444C450000000039310008680100203E
:103970006401002050010020480100200248006836
:10398000401C0149086070476C0100201D48006818
:1039900018B101201C49086032E000201A49086073
:1039A0001A480068B0FA80F0C0F11F0101EB8100F5
:1039B000174A52F8200008B1012000E0002050B959
:1039C00000BF502080F31188BFF34F8FBFF36F8F7C
:1039D00000BF00BFFEE701EB81020D4B03EB82004D
:1039E00042685268426000F108024368934202D183
:1039F0004268526842604268D268064B1A6000BF53
:103A0000704700006C010020580100204C0100208C
:103A1000580600203401002001460020054A127893
:103A200032B1054A12780A700022024B1A70012046
:103A300070470000C6000020C50000200020024999
:103A40000870012070470000C600002001460120D8
:103A5000024A10700248017001207047C600002021
:103A6000C5000020014603480068006840680870EF
:103A700001207047C80000202DE9F04106460C46A1
:103A800017461D461C481D49096808601B48006808
:103A90004460002119480068C16025B1012D0AD099
:103AA000022D1DD112E000211448006881601348E6
:103AB0000068016114E04FF4805110480068816093
:103AC0004FF4C0610D480068016109E04FF4805176
:103AD0000A4800688160891008480068016100BFD9
:103AE00000BF06480068FDF729FF08B1FCF7F1FBAD
:103AF0000120BDE8F081000000440040C800002023
:103B000031B50A230122694603480068FDF79BFF8F
:103B10000446012038BD0000C80000201CB5044642
:103B20004FF0804012490860FDF7A8F940001149A4
:103B3000B0FBF1F0401E0E49486000210C48816046
:103B40003121C1600C4804800948FDF761FC08B1CF
:103B500000201CBD202000900020019069460448F0
:103B6000FDF72CFC08B10020F3E70120F1E700008D
:103B70005805002040420F00CC00002038B500243A
:103B80006846FFF76FFF1C48007830B101280AD063
:103B9000022819D003282BD102E0FFF7B3FD27E05C
:103BA000FFF7B0FD24E00020144908809DF80020B4
:103BB0000888411C114B198011490A5402200E49F2
:103BC0000870FFF79FFD13E00C480088FF2809DC10
:103BD0009DF8002009490888411C084B19800849B4
:103BE0000A5402E0032004490870FFF78BFD00BF70
:103BF00000BF204638BD0000050000200E00002058
:103C0000B401002010B500240D48007820B102282E
:103C100007D003280BD109E00120FFF717FF044666
:103C200006E00220FFF712FF044601E000E000BFBB
:103C300000BFFFF75FFD012001490870204610BD5D
:103C40000500002010B500241648007810B10128A6
:103C500024D104E000210120FFF70EFD1EE01248F0
:103C6000008878B1114909680878FFF749FF0F48C3
:103C70000068401C0D4908600B480088401E0A4936
:103C800008800AE00820FFF7E1FE04460021012039
:103C9000FFF7F2FC00200349087000BF00BF204678
:103CA00010BD0000040000200C00002008000020CF
:103CB0001CB53849084600780190FF200A4610706C
:103CC0000846007800909DF8000000F0F0009DF894
:103CD0000020904201D1012000E0002050B900BF37
:103CE000502080F31188BFF34F8FBFF36F8F00BF59
:103CF00000BFFEE79DF8000000F05000264A10705B
:103D00000720264A106009E024480068401E234A24
:103D100010609DF800004006000E00909DF8000025
:103D200000F080008028EFD01C480068C0F1070038
:103D3000042801D1012000E0002050B900BF50202C
:103D400080F31188BFF34F8FBFF36F8F00BF00BFA9
:103D5000FEE7124800680002104A10601046008812
:103D600000F4E06010600B4A019810700C48006885
:103D700040F470000A4908600846006840F070404E
:103D80000860FFF761FD002006490860FCF7ECF9C8
:103D900000201CBD00E400E08C0100209001002008
:103DA00020ED00E0880100202DE9FF4F85B080461E
:103DB00089461746DDE912ABB800FFF7DBFA064685
:103DC00056B15420FFF7D6FA04460CB1266304E03E
:103DD0003046FFF7EFFC00E000248CB1002084F8AF
:103DE0005100CDE900ABCDE902403A464946404694
:103DF000089BFFF7B5F92046FFF7BAF8012501E067
:103E00004FF0FF35284609B0BDE8F08F2DE9F04F9F
:103E100085B00746884691469A46DDE90EB6109C65
:103E20000EB1012000E0002050B900BF502080F307
:103E30001188BFF34F8FBFF36F8F00BF00BFFEE746
:103E40000CB1012000E0002050B900BF502080F3E9
:103E50001188BFF34F8FBFF36F8F00BF00BFFEE726
:103E6000542003900398542801D1012000E0002041
:103E700050B900BF502080F31188BFF34F8FBFF3BC
:103E80006F8F00BF00BFFEE7B4B1AEB125462C4630
:103E90002E63022085F85100002004A953464A46AB
:103EA000CDE900B1CDE9025041463846FFF758F957
:103EB0002846FFF75DF801E000200490049805B063
:103EC000BDE8F08F2DE9F0414FF00008444800684C
:103ED000002877D143480068451C4248056015BB5F
:103EE00041480068006808B9012000E0002050B98E
:103EF00000BF502080F31188BFF34F8FBFF36F8F47
:103F000000BF00BFFEE738480768384800683649F8
:103F100008603648076036480068401C344908602D
:103F2000FFF7DCF900BF3348006885423CD300BF8F
:103F30002D480068006808B9012000E0002020B189
:103F40004FF0FF302B4908602DE027480068C0681B
:103F5000C4686668B54202D22648066023E0201D88
:103F6000FFF734FBA06A18B104F11800FFF72EFB2D
:103F700094F82C10012088401F49096808431E4905
:103F80000860E16A01EB81011C4A02EB8100211DFE
:103F9000FFF766FB1A49E06A0968C96A8842C7D315
:103FA0004FF00108C4E700BF15480068C06A00EB85
:103FB0008000124951F82000012801D94FF0010872
:103FC00005E0FFE70F480068401C0E4908600E48F6
:103FD000006808B14FF001084046BDE8F0810000DC
:103FE0006C01002048010020380100203C01002025
:103FF0005C010020640100204C01002058060020D4
:1040000034010020540100205801002070B5002424
:1040100000263648006850B900BF502080F3118850
:10402000BFF34F8FBFF36F8F00BF00BFFEE7FFF7F7
:1040300079FB2E480068401E2C490860084600683D
:1040400000284FD12A48006800284BD024E0294896
:10405000C068C46804F11800FFF7B8FA201DFFF724
:10406000B5FA94F82C1001208840234909680843C8
:1040700021490860E16A01EB8101204A02EB8100DD
:10408000211DFFF7EDFA1E49E06A0968C96A8842F6
:1040900002D301201B4908601648006808B90120B6
:1040A00000E000200028D2D00CB1FFF717F9164825
:1040B000056865B100BFFFF705FF10B10120114988
:1040C00008606D1E002DF6D100200F4908600D48D4
:1040D000006838B1012630070C490860BFF34F8FE4
:1040E000BFF36F8FFFF748FB304670BD6C010020B7
:1040F000440100200C0700204C010020580600203D
:1041000034010020580100205401002004ED00E09B
:1041100000C1814001C0804101C0804100C1814097
:1041200001C0804100C1814000C1814001C0804187
:1041300001C0804100C1814000C1814001C0804177
:1041400000C1814001C0804101C0804100C1814067
:1041500001C0804100C1814000C1814001C0804157
:1041600000C1814001C0804101C0804100C1814047
:1041700000C1814001C0804101C0804100C1814037
:1041800001C0804100C1814000C1814001C0804127
:1041900001C0804100C1814000C1814001C0804117
:1041A00000C1814001C0804101C0804100C1814007
:1041B00000C1814001C0804101C0804100C18140F7
:1041C00001C0804100C1814000C1814001C08041E7
:1041D00000C1814001C0804101C0804100C18140D7
:1041E00001C0804100C1814000C1814001C08041C7
:1041F00001C0804100C1814000C1814001C08041B7
:1042000000C1814001C0804101C0804100C18140A6
:1042100000C0C101C30302C2C60607C705C5C40466
:10422000CC0C0DCD0FCFCE0E0ACACB0BC90908C8D6
:10423000D81819D91BDBDA1A1EDEDF1FDD1D1CDCC6
:1042400014D4D515D71716D6D21213D311D1D01036
:10425000F03031F133F3F23236F6F737F53534F426
:104260003CFCFD3DFF3F3EFEFA3A3BFB39F9F83896
:1042700028E8E929EB2B2AEAEE2E2FEF2DEDEC2C86
:10428000E42425E527E7E62622E2E323E12120E0F6
:10429000A06061A163A3A26266A6A767A56564A4E6
:1042A0006CACAD6DAF6F6EAEAA6A6BAB69A9A86856
:1042B00078B8B979BB7B7ABABE7E7FBF7DBDBC7C46
:1042C000B47475B577B7B67672B2B373B17170B0B6
:1042D00050909151935352929656579755959454A6
:1042E0009C5C5D9D5F9F9E5E5A9A9B5B9959589816
:1042F000884849894B8B8A4A4E8E8F4F8D4D4C8C06
:104300004484854587474686824243834181804075
:1043100044430008ED1D00080000000000000000FC
:10432000800000000000000000000000000000000D
:104330000000000001020304060708090000000055
:104340000102030464656661756C745461736B00EB
:104350007043000800000020940100006C02000877
:10436000D843000894010020B4150000BC240008C4
:1043700001120229023211133D2833080413DD26ED
:104380003308031A4F08321013A7293308061AD529
:1043900020321713692733080113F5243308051A4F
:1043A0006518320F1A1728297213A325023C081327
:1043B000D8053A20BE2A028E712C0C01408CE914DB
:1043C0002929E914299CE9142998812948292411CB
:0843D000035524F41AAA01812F
:0400000508000131BD
:00000001FF
